:100000000C945C000C946E000C946E000C946E00CA
:100010000C946E000C946E000C946E000C946E00A8
:100020000C946E000C946E000C946E000C946E0098
:100030000C946E000C9495010C946E000C946E0060
:100040000C944B010C946E000C946E000C946E009A
:100050000C946E000C946E000C946E000C946E0068
:100060000C946E000C946E00000000080002010069
:100070000003040700000000000000000000000072
:10008000250028002B0000000000240027002A0083
:10009000040404040404040402020202020203032E
:1000A0000303030301020408102040800102040836
:1000B000102001020408102011241FBECFEFD8E049
:1000C000DEBFCDBF21E0A0E0B1E001C01D92A631AE
:1000D000B207E1F70E94BC010C9492030C9400005B
:1000E00090E0FC01EC55FF4F249180579F4FFC019D
:1000F0008491882399F090E0880F991FFC01EA57BA
:10010000FF4FA591B491FC01E458FF4F8591949164
:100110008FB7F894EC91E22BEC938FBF089590E0A9
:10012000FC01E859FF4F2491FC01EC55FF4F34913D
:10013000FC01E057FF4FE491EE23C9F0222339F090
:10014000233001F1A8F4213019F1223029F1F0E037
:10015000EE0FFF1FE458FF4FA591B4918FB7F894AD
:10016000EC91611126C030953E233C938FBF0895DA
:100170002730A9F02830C9F0243049F78091800059
:100180008F7D03C0809180008F7780938000DFCFC8
:1001900084B58F7784BDDBCF84B58F7DFBCF809115
:1001A000B0008F778093B000D2CF8091B0008F7D68
:1001B000F9CF3E2BDACF3FB7F89480910B019091A5
:1001C0000C01A0910D01B0910E0126B5A89B05C0B0
:1001D0002F3F19F00196A11DB11D3FBFBA2FA92FC6
:1001E000982F8827BC01CD01620F711D811D911DC3
:1001F00042E0660F771F881F991F4A95D1F708952F
:10020000CF93DF93E0910001F0910101CAE0D0E0CB
:10021000CF01BE010E946403809312016093130119
:100220002091020130910301C901BE010E946403C3
:1002300080931401609315013196EC33F10539F088
:10024000F0930101E0930001DF91CF9108951092A6
:100250000101109200012F5F3F4F2C33310529F02F
:100260003093030120930201EFCF1092030110920B
:100270000201809104019091050101968831910558
:1002800029F09093050180930401DECF10920501BF
:1002900010920401D9CF1F920F920FB60F92112422
:1002A0002F933F938F939F93AF93BF9380910701B9
:1002B00090910801A0910901B0910A0130910601C5
:1002C00023E0230F2D3758F50196A11DB11D209372
:1002D00006018093070190930801A0930901B09350
:1002E0000A0180910B0190910C01A0910D01B09138
:1002F0000E010196A11DB11D80930B0190930C017D
:10030000A0930D01B0930E01BF91AF919F918F917A
:100310003F912F910F900FBE0F901F90189526E8D8
:10032000230F0296A11DB11DD2CF1F920F920FB6BF
:100330000F9211242F933F934F935F936F937F936B
:100340008F939F93AF93BF93EF93FF93E0910F0130
:10035000F09110010995FF91EF91BF91AF919F919D
:100360008F917F916F915F914F913F912F910F905E
:100370000FBE0F901F901895789484B5826084BD4D
:1003800084B5816084BD85B5826085BD85B5816099
:1003900085BD80916E00816080936E001092810017
:1003A00080918100826080938100809181008160D2
:1003B0008093810080918000816080938000809193
:1003C000B10084608093B1008091B000816080931F
:1003D000B00080917A00846080937A0080917A00E6
:1003E000826080937A0080917A00816080937A00A5
:1003F00080917A00806880937A001092C10085E035
:100400000E94700087E00E9470008BE00E947000E4
:1004100089E00E94700088E00E94700086E00E94DF
:1004200070008CE00E9470008AE00E94700081E100
:100430000E94700080E10E9470008FE00E947000B6
:100440008EE00E94700060E08AE00E948F0080E1F0
:10045000809381001092800082E19AE79093870058
:100460008093860084E18093810080E091E0909306
:10047000100180930F0181E080936F0080E0E82EEF
:1004800080E0F82E02E111E0C1E0D0E060E085E01C
:100490000E948F0060E087E00E948F0060E08BE0A8
:1004A0000E948F0060E089E00E948F0060E088E099
:1004B0000E948F0060E086E00E948F0060E08CE088
:1004C0000E948F0061E081E10E948F0061E080E185
:1004D0000E948F0061E08FE00E948F0061E08EE05B
:1004E0000E948F0060E080E1C230D10549F08FE0CA
:1004F000C330D10529F081E1C130D10509F08EE08A
:100500000E948F00D801ED918D01EA3008F0CEC035
:100510000E2E000CFF0BE157FD4F0C9478033C03AB
:100520009902AF02E602F8020E031C032E03300309
:10053000360360E085E00E948F0061E087E00E9462
:100540008F0061E08BE00E948F0060E089E00E94F4
:100550008F0060E088E00E948F0060E0A2C061E050
:1005600085E00E948F0061E087E00E948F0060E0DC
:100570008BE00E948F0061E089E00E948F0061E0C3
:1005800088E00E948F0060E086E00E948F0061E0BA
:100590008CE00E948F000E94DB004B015C010E94F6
:1005A000DB00681979098A099B09683E7340810557
:1005B0009105A8F32196C530D10509F067CFE11464
:1005C000F10409F45FCF0E9400005CCF61E085E098
:1005D0000E948F0061E087E00E948F0061E08BE065
:1005E0000E948F0061E089E00E948F0060E0C8CF28
:1005F00060E085E00E948F0061E087E00E948F004C
:1006000061E08BE00E948F0060E089E00E948F0033
:1006100060E088E00E948F0061E0B6CF61E085E095
:100620000E948F0060E087E00E948F0061E08BE015
:100630000E948F0061E0E9CF61E085E00E948F00B9
:1006400060E087E00E948F0061E08BE00E948F00F5
:1006500061E089E00E948F0061E0DBCF61E06ACF5A
:1006600061E085E00E948F0061E0EBCF61E085E012
:100670000E948F0061E0D7CF61E085E00E948F008B
:1006800061E087E00E948F0061E08BE00E948F00B4
:1006900061E089E00E948F0061E088E00E948F00A5
:1006A00061E086E00E948F0060E072CF61E085E04B
:1006B0000E948F0060E087E00E948F0060E08BE086
:1006C0000E948F0061E042CF97FB072E16F4009442
:1006D00007D077FD09D00E947E0307FC05D03EF4C9
:1006E000909581959F4F0895709561957F4F0895DE
:1006F000EE0FFF1F0590F491E02D0994AA1BBB1B80
:1007000051E107C0AA1FBB1FA617B70710F0A61B11
:10071000B70B881F991F5A95A9F780959095BC0132
:08072000CD010895F894FFCF0C
:00000001FF
